:100000000C9467000C948F000C948F000C948F005C
:100010000C948F000C948F000C9400030C948F00B0
:100020000C948F000C948F000C948F000C948F0014
:100030000C948F000C948F000C948F000C948F0004
:100040000C94FB0F0C948F000C94430E0C94750EC3
:100050000C948F000C948F000C948F000C948F00E4
:100060000C948F000C948F00E30BE30BE30BA80BB5
:100070000D0C1B0CE30BE30BA80B0D0C0000000890
:10008000000201000003040700000000000000005F
:10009000010204081020408001020408102001021F
:1000A00004081020040404040404040402020202EC
:1000B00002020303030303030000000025002800DD
:1000C0002B0000000000240027002A00A50E1124A8
:1000D0001FBECFEFD8E0DEBFCDBF11E0A0E0B1E0A2
:1000E000E2ECF3E202C005900D92A634B107D9F715
:1000F00022E0A6E4B1E001C01D92A237B207E1F709
:1001000010E0CEECD0E004C02297FE010E94A410C3
:10011000CC3CD107C9F70E94EC0F0C94DF110C9472
:10012000000061E08DE00E948F0C61E08DE00E9494
:10013000C80C8EE390E00E94B20860E08DE00E945F
:10014000C80C8EE390E00E94B208EFCF8EE00E94D0
:10015000490C4AE050E0BC0188EC91E00E94D40FC9
:1001600081E090E00E94B208F1CFEF92FF920F93EE
:1001700026E040E855E260E070E088EC91E00E9403
:10018000E10DE12CF12C02E020E030E040E850E00D
:1001900067E071E081E990E00E94490601E020E01B
:1001A00030E040E850E06DE071E086EA90E00E94C7
:1001B00049060F91FF90EF90089508950F931F93B4
:1001C000CF93DF9300D0CDB7DEB789839A830E94A7
:1001D000800789819A810E94A8108C010E9443089F
:1001E0000115110511F40E94280CC8010F900F9001
:1001F000DF91CF911F910F910895CF93DF9300D09E
:10020000CDB7DEB7009771F089839A830E9480078B
:1002100089819A810E9440110F900F90DF91CF91B8
:100220000C9443080F900F90DF91CF910895FC013B
:100230000396928381832FEF3FEF3483238396834A
:1002400085839087878310820895FC01118610862C
:100250000895CF93DF939C01FB01DC011196CD91B2
:10026000DC911297D383C2838C819D819583848393
:100270008C819D81DC0113967C936E9312977D8314
:100280006C8331872087F90180818F5F8083DF91C4
:10029000CF9108950F931F93CF93DF938C01FB01B0
:1002A000208131812F3F8FEF380721F4E801AF81A2
:1002B000B8850EC0D801139612968D919C91139714
:1002C000EC01488159812417350710F0DC01F4CF87
:1002D00012968D919C91139793838283EC01FD83F9
:1002E000EC83B583A4831396FC93EE931297118746
:1002F0000087F80180818F5F8083DF91CF911F910C
:100300000F910895CF93DF93FC01A085B185828181
:10031000938124813581EC013D832C83C481D58177
:100320009B838A8311968D919C9112978E179F07BC
:1003300021F41296DC93CE931197118610868C913E
:1003400081508C938C91DF91CF91089531E1FC0124
:100350003083319722E220833197A3E3A083319742
:1003600060833197708331971082319760E86083A2
:1003700031971082319762E06083319763E0608348
:10038000319764E06083319765E06083319766E080
:100390006083319767E06083319768E060833197CD
:1003A00069E06083319760E16083319730833197F2
:1003B00032E13083319733E13083319734E1308358
:1003C000319735E13083319736E13083319737E12A
:1003D0003083319738E13083319739E13083319779
:1003E00030E23083319731E2308331972083319787
:1003F00023E220833197408331975083319726E25F
:100400002083319727E22083319728E22083319798
:1004100029E22083319720E32083319721E3208351
:1004200086970895A89590EC88E10FB6F894A89562
:10043000809360000FBE90936000A091AA01B091DC
:10044000AB01CD91CDBFDD91DEBFFF91EF91DF918B
:10045000CF91BF91AF919F918F917F916F915F915C
:100460004F913F912F911F910F91FF90EF90DF904F
:10047000CF90BF90AF909F908F907F906F905F9044
:100480004F903F902F901F900F900FBE0F900895A8
:1004900081E008950F920FB6F8940F921F921124E5
:1004A0002F923F924F925F926F927F928F929F9284
:1004B000AF92BF92CF92DF92EF92FF920F931F9372
:1004C0002F933F934F935F936F937F938F939F935C
:1004D000AF93BF93CF93DF93EF93FF93A091AA01C4
:1004E000B091AB010DB60D920EB60D920E94CE08E2
:1004F000A091AA01B091AB01CD91CDBFDD91DEBF3E
:10050000FF91EF91DF91CF91BF91AF919F918F912B
:100510007F916F915F914F913F912F911F910F911B
:10052000FF90EF90DF90CF90BF90AF909F908F9013
:100530007F906F905F904F903F902F901F900F9003
:100540000FBE0F9008950F920FB6F8940F921F925E
:1005500011242F923F924F925F926F927F928F92CF
:100560009F92AF92BF92CF92DF92EF92FF920F9342
:100570001F932F933F934F935F936F937F938F932B
:100580009F93AF93BF93CF93DF93EF93FF93A0918C
:10059000AA01B091AB010DB60D920EB60D9213BE2D
:1005A0000E94900781110E94CE08A091AA01B091EB
:1005B000AB01CD91CDBFDD91DEBFFF91EF91DF911A
:1005C000CF91BF91AF919F918F917F916F915F91EB
:1005D0004F913F912F911F910F91FF90EF90DF90DE
:1005E000CF90BF90AF909F908F907F906F905F90D3
:1005F0004F903F902F901F900F900FBE0F90089537
:100600000E94A30218950FB6F8940F92FC01928DE8
:100610000F900FBE81E0911180E008950F931F931A
:10062000CF93DF93EC01042F1A8D4C8D41110BC039
:1006300088819981892BE9F58A819B810E94E10952
:100640001B821A8237C050E0011115C08C819D8138
:100650000E94CF112C8D8C819D81820F911D9D83D5
:100660008C832A813B818217930718F188819981B5
:100670009D838C831EC08E819F810E94CF112C8D03
:1006800030E03195219531098E819F81820F931F32
:100690009F838E83688179818617970730F48A81DA
:1006A0009B81820F931F9F838E83023011F411115F
:1006B000115080E01F5F1A8FDF91CF911F910F9132
:1006C0000895FC01CB01448D4423A1F050E0268124
:1006D0003781240F351F3783268362817381261764
:1006E000370720F020813181378326836681778127
:1006F0000C94CF110895FF920F931F93CF93DF9324
:10070000EC010FB6F8940F92FE8C8C010F5E1F4F18
:100710001F145CF48989882341F0C8010E944F09A5
:1007200081110E94CF09FA94F3CF8FEF8E8F0F9033
:100730000FBE0FB6F8940F92FD8C8E01085F1F4F0D
:100740001F145CF48885882341F0C8010E944F097A
:1007500081110E94CF09FA94F3CF8FEF8D8F0F9004
:100760000FBEDF91CF911F910F91FF900895CF930E
:10077000DF93EC010FB6F8940F92288139818B8DAD
:100780007C8D879FC0011124A901480F591F5B83ED
:100790004A831A8E3D832C83871B9109820F931FF6
:1007A0009F838E838FEF8D8F8E8F61110CC0888514
:1007B000882389F0CE0108960E944F09882359F0BA
:1007C0000E944A0208C0CE0108960E941701CE017D
:1007D00041960E9417010F900FBE81E0DF91CF91EB
:1007E0000895EF92FF921F93CF93DF931F92CDB79F
:1007F000DEB7182F662321F0869FC001112402C0A6
:1008000080E090E04F9669830E94DE007C01698160
:10081000009799F0611104C0FC019183808306C0A8
:100820009C01215E3F4FFC0131832083F701138F30
:10083000648F61E0C7010E94B703C7010F90DF9189
:10084000CF911F91FF90EF900895BF92CF92DF92CA
:10085000EF92FF920F931F93CF93DF9300D000D0BE
:100860001F92CDB7DEB78C016B015D834C83B22E36
:1008700020E07C0188E0E80EF11C0FB6F8940F929E
:10088000F801928D838D981718F0F2E0BF1214C012
:100890004B2DB601C8010E940E03F80191899923DE
:1008A00021F0C80141960E944F0981110E944A021D
:1008B0000F900FBE81E050C08C819D81892B19F46F
:1008C0000F900FBE48C0211104C0CE0101960E94B6
:1008D0008F090F900FBE0E9480070FB6F8940F92F9
:1008E000F801858D8F3F09F4158EF801868D8F3FB5
:1008F00009F4168E0F900FBEBE016C5F7F4FCE01C4
:1009000001960E949A09811121C00FB6F8940F92A6
:10091000F801928D838D0F900FBE981311C06C81DA
:100920007D81C7010E941F09C8010E947B030E94AC
:100930004308882311F021E0A0CF0E944A02FBCF98
:10094000C8010E947B030E944308F5CFC8010E94A2
:100950007B030E94430880E00F900F900F900F9050
:100960000F90DF91CF911F910F91FF90EF90DF904B
:10097000CF90BF900895FF920F931F93CF93DF9373
:10098000EC018A019A8D8B8D981710F02230E1F4DA
:10099000FE8C422FCE010E940E038FEFF81210C082
:1009A0008989882379F0CE0141960E944F098823D6
:1009B00049F00115110531F081E0F801808305C08F
:1009C000F394FE8E81E001C080E0DF91CF911F9112
:1009D0000F91FF900895BF92CF92DF92EF92FF9216
:1009E0000F931F93CF93DF9300D000D01F92CDB70A
:1009F000DEB78C017B015D834C8320E06C0181E1DB
:100A0000C80ED11C0FB6F8940F92F801B28CBB201F
:100A1000A9F0B701C8010E946103BA94F801B28E2F
:100A20008085882339F0C80108960E944F098111FA
:100A30000E944A020F900FBE81E050C08C819D81C0
:100A4000892B19F40F900FBE48C0211104C0CE01AC
:100A500001960E948F090F900FBE0E9480070FB66B
:100A6000F8940F92F801858D8F3F09F4158EF801E7
:100A7000868D8F3F09F4168E0F900FBEBE016C5FFE
:100A80007F4FCE0101960E949A0981111CC0C801B6
:100A90000E940303882389F06C817D81C6010E9436
:100AA0001F09C8010E947B030E944308882311F09C
:100AB00021E0A8CF0E944A02FBCFC8010E947B031D
:100AC0000E944308F5CFC8010E947B030E9443089F
:100AD000C8010E940303882359F380E00F900F9010
:100AE0000F900F900F90DF91CF911F910F91FF907A
:100AF000EF90DF90CF90BF900895CF93DF93EC01FC
:100B00000FB6F8940F928D8D8F3F09F41D8E8E8D48
:100B10008F3F09F41E8E0F900FBE8A8D811104C085
:100B2000CE0141960E943009CE01DF91CF910C9405
:100B30007B03E0917201F09173018081811103C008
:100B40008FEF9FEF0CC0E0917201F091730105806F
:100B5000F681E02D0680F781E02D828193819093CC
:100B60004A01809349010895EF92FF920F931F93DA
:100B7000CF93DF931F92CDB7DEB77C010091510177
:100B8000109152018091AA019091AB010296698364
:100B90000E94820169818FEFE816F80699F46623B6
:100BA00089F06091AA017091AB016E5F7F4F84E57F
:100BB00091E00F90DF91CF911F910F91FF90EF90F7
:100BC0000C942901E00EF11EE091AA01F091AB0115
:100BD000F382E2826091AA017091AB01E016F10606
:100BE00078F480917001909171016E5F7F4F0F904A
:100BF000DF91CF911F910F91FF90EF900C944A01DC
:100C000080917201909173016E5F7F4F0E944A0143
:100C10008091490190914A01E816F90620F4F0927A
:100C20004A01E09249010F90DF91CF911F910F91FE
:100C3000FF90EF90089580915D01882309F10FB630
:100C4000F8940F92E0916301F0916401C681D7811D
:100C5000CE0102960E9482018091530181508093BF
:100C6000530180915D01815080935D010F900FBE13
:100C70008F89988D0E94FD00CE010E94FD00DBCF80
:100C800080918601823010F00E944A020E941F0C5F
:100C9000D2CF5F926F927F928F929F92AF92BF92CC
:100CA000CF92DF92EF92FF920F931F93CF93DF9338
:100CB0004C01562E172F5A013901CA010E94DE003D
:100CC0006C01009709F4DCC088E290E00E94DE002D
:100CD000EC010097A1F0D88ECF8AA50165EA70E0FB
:100CE000C6010E94D81121E0A21AB108CF88D88C81
:100CF000CA0CDB1CE52DF12F80E090E008C0C60196
:100D00000E94FD00BDC001968830910561F0BF01D1
:100D100041919E01280F391FD90159964C93DB014F
:100D20002C912111F0CF18A2043008F003E00E8BB3
:100D300009A31AA25E01B2E0AB0EB11CC5010E946C
:100D40002501CE010C960E942501D987C88784E031
:100D500090E0801B91099D878C87DB8BCA8B1BA23F
:100D60001CA21DA21EA21FA2A301B401C6010E94C3
:100D7000A60199838883E114F10419F0F701D18366
:100D8000C0830FB6F8940F92809153018F5F8093C8
:100D900053018091AA019091AB01892BD1F5D09399
:100DA000AB01C093AA0180915301813009F041C089
:100DB00086E891E00E9417018FE891E00E941701F8
:100DC00088E991E00E94170181EA91E00E941701F1
:100DD0008DE791E00E94170184E791E00E941701DE
:100DE00087E691E00E9417018EE591E00E941701CD
:100DF00084E591E00E9417018DE791E090937301E3
:100E00008093720184E791E0909371018093700167
:100E100010C080914F0181110CC0E091AA01F091A6
:100E2000AB0196898E89891720F0D093AB01C093CE
:100E3000AA0180914B018F5F80934B018E89909125
:100E40005001981710F480935001F9E08F9FC00172
:100E50001124B5018A579E4F0E9429010F900FBEA1
:100E600080914F01882351F0E091AA01F091AB01EC
:100E700096898E89981710F40E944A0281E001C079
:100E80008FEFDF91CF911F910F91FF90EF90DF9047
:100E9000CF90BF90AF909F908F907F906F905F901A
:100EA0000895EF92FF920F9387E4E82E81E0F82EE9
:100EB00000E020E030E040EC50E068E171E08BE1E0
:100EC00096E00E9449068130B9F40E946D0A813093
:100ED00099F4F8948FEF9FEF90934A018093490122
:100EE00081E080934F0110925201109251010F91B5
:100EF000FF90EF900C9412020F91FF90EF900895E5
:100F0000809146018F5F8093460108950FB6F89453
:100F10000F9280915101909152010F900FBE089550
:100F2000CF92DF92EF92FF920F931F93CF93DF93B5
:100F300080914601811191C0C0915101D09152011F
:100F40002196D0935201C09351012097B9F480911A
:100F50007201909173012091700130917101309371
:100F600073012093720190937101809370018091BD
:100F70004C018F5F80934C010E949905809149013B
:100F800090914A01D12CC817D90708F455C099E0AF
:100F9000C92EE0917201F09173018081811107C027
:100FA0008FEF9FEF90934A018093490145C0E091F4
:100FB0007201F09173010580F681E02D06811781A1
:100FC000D80112962D913C911397C217D30728F49C
:100FD00030934A01209349012FC07801B2E0EB0E13
:100FE000F11CC7010E948201F80124893589232B55
:100FF00021F0C8010C960E948201D80156962C91CE
:1010000080915001821710F420935001C29EC001BC
:101010001124B7018A579E4F0E942901E091AA012D
:10102000F091AB01D80156969C918689981708F4E7
:10103000B0CFDD24D394ADCFE091AA01F091AB0104
:10104000E689B9E0EB9FF0011124EA57FE4F808159
:10105000823048F0DD24D39406C080914E018F5F2A
:1010600080934E01D12C80914D01882311F0DD2415
:10107000D3948D2DDF91CF911F910F91FF90EF9021
:10108000DF90CF900895EF92FF920F931F93CF932D
:10109000DF930FB6F8940F928091460181508093B0
:1010A000460180914601882311F080E052C0809172
:1010B00053018823D1F3C0E0D0E029E0F22EEE24E2
:1010C000E39480916701882351F1E0916C01F091E4
:1010D0006D01C681D781CE010C960E9482018E01DE
:1010E0000E5F1F4FC8010E9482018E8990915001AE
:1010F000981710F480935001F89EC0011124B80194
:101100008A579E4F0E942901E091AA01F091AB01FC
:101110009E8986899817A8F2E0924D01D2CFCD2BF7
:1011200011F00E949905C0914E01CC2351F0D1E0FD
:101130000E9490078111D0934D01C150C9F71092C0
:101140004E0180914D01882309F4AFCF0E944A02DD
:1011500081E00F900FBEDF91CF911F910F91FF9013
:10116000EF900895CF93DF9300D0CDB7DEB700970F
:1011700019F40E944A020DC089839A830E94800755
:1011800060E089819A810E94B4050E944308882307
:1011900081F30F900F90DF91CF91089580914601D8
:1011A000882321F081E080934D01089510924D0134
:1011B000A091AA01B091AB01E091AA01F091AB011D
:1011C0002D913C918789908D8217930760F06091F3
:1011D000AA017091AB018091AA019091AB01675E69
:1011E0007F4F0E943C0C2091500199E0929FF001AA
:1011F0001124EA57FE4F8081811102C02150F6CFA1
:10120000A181B28112960D90BC91A02DB283A183D1
:10121000CF010396A817B90731F412968D919C91CE
:101220001397928381830180F281E02D86819781DB
:101230009093AB018093AA01209350010895CF931E
:10124000DF93EB016091AA017091AB01645F7F4F66
:101250000E944A0161E0CE01DF91CF910C94B40568
:101260000F931F93CF93DF931F92CDB7DEB78B0100
:101270006091AA017091AB01645F7F4F49830E9426
:1012800029014981442311F00FEF1FEF642FC8019A
:101290000F90DF91CF911F910F910C94B4050F9394
:1012A0001F93CF93DF93DC011596ED91FC91169778
:1012B000C681D7818E01045F1F4FC8010E94820141
:1012C00080914601811114C00A501109C8010E9481
:1012D00082018E8990915001981710F480935001EB
:1012E000B9E08B9FC0011124B8018A579E4F03C0FB
:1012F000B80187E691E00E942901E091AA01F091EE
:10130000AB019E898689891720F481E080934D0185
:1013100001C080E0DF91CF911F910F91089520913E
:101320004C01FC0120832091510130915201328304
:1013300021830895CF93DF93FB010FB6F8940F92AA
:101340004091510150915201DC0111966D917C91B7
:101350001297208131812F3FBFEF3B07C1F0B09141
:101360004C01EC01A881BA1719F04617570788F409
:10137000461B570B4217530738F4241B350B318398
:1013800020830E948F0903C01182108202C080E076
:1013900001C081E00F900FBEDF91CF91089581E0F1
:1013A00080934D01089580914F01882331F0809101
:1013B0004601811104C082E0089581E0089580E033
:1013C00008950F931F93CF93DF93EC01009711F4CF
:1013D00080E02BC08AA181508AA32E8999A1291768
:1013E000B9F38111F5CF8E010E5F1F4FC8010E9426
:1013F000820189A18E8B482F50E024E030E0241B2D
:10140000350B3D872C8790915001981710F48093ED
:10141000500129E0249FC001259F900D1124B8019F
:101420008A579E4F0E94290181E0DF91CF911F9141
:101430000F9108950FB6F8940F928091B00190919A
:10144000B101892BE9F48FEB91E00E94170186EB43
:1014500091E00E9417018FEB91E09093B50180938A
:10146000B40186EB91E09093B3018093B20140E028
:1014700065E08AE00E94F1039093B1018093B0018E
:101480000F900FBE0895FC0173836283918780875C
:101490004617570778F0421B530B848595854817EC
:1014A0005907C8F4BF016E5F7F4F8091B2019091E0
:1014B000B3010DC04217530718F46217730758F4AD
:1014C000BF016E5F7F4F8091B4019091B5010E9482
:1014D0004A0180E0089581E00895EF92FF920F9312
:1014E0000E941A0A8091B0019091B101892B81F07C
:1014F0008EEAE82E81E0F82E03E020E030E045E5BA
:1015000050E06DE171E08DE19BE00E94490601C071
:1015100080E00F91FF90EF9008950F931F93CF936A
:10152000DF9300D000D01F92CDB7DEB7FC01D90108
:101530008091B0019091B101009719F169835B83AB
:101540004A83FD83EC836630A4F40E94D309E091C2
:10155000B001F091B10120E0823011F4A80102C085
:1015600040E050E0BE016F5F7F4FCF010E94250435
:1015700009C020E0AD01BE016F5F7F4F0E94BB0438
:1015800001C080E00F900F900F900F900F90DF91AF
:10159000CF911F910F910895EF92FF920F931F9398
:1015A000CF93DF93E091B401F091B501808188235E
:1015B00089F10580F681E02DE080F180C681D78138
:1015C0008E010E5F1F4FC8010E948201E989FA89CE
:1015D000CE0109958E85813029F72C853D852E0D0C
:1015E0003F1DE216F30660F43B832A83D987C88740
:1015F000B8018091B4019091B5010E944A01D2CF07
:1016000000E010E020E030E0A70160E0CE010E94A1
:101610008D0AC8CF8091B2019091B3019093B5012A
:101620008093B401F093B301E093B201DF91CF91C5
:101630001F910F91FF90EF900895CF93DF93CDB757
:10164000DEB727970FB6F894DEBF0FBECDBFE0918F
:10165000B401F091B501808141E0882339F040E088
:101660000580F681E02DC080D18002C0C12CD12C34
:101670004F830E9480070E9486078C018091AC01F5
:101680009091AD014F810817190728F40E94CC0AE8
:1016900081E04F8101C080E01093AD010093AC0167
:1016A000811150C0411136C00C151D05D8F10E94A2
:1016B0004308E091B401F091B5010580F681E02D79
:1016C000E680F780C70102960E948201D7011E962C
:1016D0008C911E978130B1F41C966D917C911D9771
:1016E0006C0D7D1D9601A801C7010E94430A882345
:1016F00049F000E010E020E030E0A60160E0C70122
:101700000E948D0AD7015196ED91FC915297C70125
:1017100009951EC0E091B201F091B301808141E0D2
:10172000811140E0B601601B710B8091B001909176
:10173000B1010E947D050E944308811109C00E94E9
:101740004A0206C00E94430803C0898187FF0EC079
:1017500040E050E0BE016F5F7F4F8091B0019091FB
:10176000B1010E94EB048111F0CF71CFEC80FD80BC
:10177000F70182859385892B21F0C70102960E948B
:1017800082010E948607AC018091AC019091AD016D
:101790004817590730F44F835E830E94CC0A5E815C
:1017A0004F815093AD014093AC010981112707FD92
:1017B0001095212F312F0A30110550F6F801EC5CFD
:1017C000FF4F0C94A2102A813B81D7011C966D918A
:1017D0007C911D97620F731FC7010E94430A8823E3
:1017E00009F4B6CFD7015196ED91FC915297C701FC
:1017F0000995F7018685813009F0AACF4485558582
:101800008A819B81480F591F00E010E020E030E002
:1018100060E0C7010E948D0A9BCF6A817B81D7015E
:101820001D967C936E931C97640F751F9A01C701D8
:101830000E94430A8DCFC7010E94FD0089CF0E94FC
:10184000DD008BE29DE0892B11F00C942B0D0895A7
:10185000259A2D9A2FEF80E792E02150804090400A
:10186000E1F700C000001D9AF5CF0E94B5000E946C
:1018700051070E94280C0895259A2D9A2FEF87EA88
:1018800091E6215080409040E1F700C000001D9A91
:10189000F5CF8E3008F08E5087702091060190E4CD
:1018A000299F90011124822B80937C0080917A00E3
:1018B000806480937A0080917A0086FDFCCF8091CD
:1018C00078002091790090E0922B0895833081F088
:1018D00028F4813099F08230A1F008958730A9F082
:1018E0008830B9F08430D1F4809180008F7D03C0BE
:1018F000809180008F7780938000089584B58F77E2
:1019000002C084B58F7D84BD08958091B0008F772B
:1019100003C08091B0008F7D8093B0000895CF9375
:10192000DF9390E0FC01E057FF4F2491FC01EC5560
:10193000FF4F8491882349F190E0880F991FFC01A3
:10194000EE53FF4FA591B49188549F4FFC01C59170
:10195000D4919FB7611108C0F8948C91209582238F
:101960008C93888182230AC0623051F4F8948C9160
:10197000322F309583238C938881822B888304C0F7
:10198000F8948C91822B8C939FBFDF91CF91089517
:101990000F931F93CF93DF931F92CDB7DEB7282FFE
:1019A00030E0F901E458FF4F8491F901E057FF4F0F
:1019B0001491F901EC55FF4F04910023C9F08823DD
:1019C00021F069830E94660C6981E02FF0E0EE0F40
:1019D000FF1FE854FF4FA591B4919FB7F8948C91E5
:1019E000611103C01095812301C0812B8C939FBF8F
:1019F0000F90DF91CF911F910F910895FC01818D80
:101A0000228D90E0805C9F4F821B91098F739927F4
:101A10000895FC01918D828D981731F0828DE80F29
:101A2000F11D858D90E008958FEF9FEF0895FC01E3
:101A3000918D828D981761F0828DDF01A80FB11D05
:101A40005D968C91928D9F5F9F73928F90E0089529
:101A50008FEF9FEF08958BE99EE0892B49F080E09E
:101A600090E0892B29F00E949B0E81110C940000BC
:101A70000895FC01848DDF01A80FB11DA35ABF4F4B
:101A80002C91848D90E001968F739927848FA6897D
:101A9000B7892C93A089B1898C9180648C93938DA4
:101AA000848D981306C00288F389E02D80818F7D94
:101AB00080830895CF93DF93EC01888D8823C9F04C
:101AC000EA89FB89808185FD05C0A889B9898C9147
:101AD00086FD0FC00FB607FCF5CF808185FFF2CFE2
:101AE000A889B9898C9185FFEDCFCE010E94390D6F
:101AF000E7CFDF91CF910895CF92DF92FF920F93BE
:101B00001F93CF93DF931F92CDB7DEB76C0181E0B7
:101B1000D60158968C9358975B969C915B975C96F0
:101B20008C915C97981307C05096ED91FC9151975A
:101B3000808185FD2EC0F601038D10E00F5F1F4FE1
:101B40000F731127F02EF601848DF81211C00FB615
:101B500007FCF9CFD6015096ED91FC915197808109
:101B600085FFF1CFC60169830E94390D6981EBCFF2
:101B7000838DE80FF11DE35AFF4F6083D6015B961A
:101B80000C935B975296ED91FC9153978081806204
:101B90000CC0D6015696ED91FC91579760835096F4
:101BA000ED91FC91519780818064808381E090E089
:101BB0000F90DF91CF911F910F91FF90DF90CF9009
:101BC0000895BF92CF92DF92EF92FF92CF93DF936F
:101BD000EC016A017B01B22EE889F98982E08083F9
:101BE000411581EE580761057105A1F060E079E0CB
:101BF0008DE390E0A70196010E94801021503109E9
:101C0000410951095695479537952795211580E14A
:101C1000380798F0E889F989108260E874E88EE165
:101C200090E0A70196010E948010215031094109DE
:101C300051095695479537952795EC85FD85308355
:101C4000EE85FF852083188EEC89FD89B082EA89B4
:101C5000FB89808180618083EA89FB89808188603B
:101C60008083EA89FB89808180688083EA89FB8997
:101C700080818F7D8083DF91CF91FF90EF90DF9007
:101C8000CF90BF9008951F920F920FB60F9211241C
:101C90002F938F939F93EF93FF93E091D801F0914F
:101CA000D9018081E091DE01F091DF0182FD12C057
:101CB00090818091E1018F5F8F732091E201821703
:101CC00051F0E091E101F0E0E853FE4F958F8093F1
:101CD000E10101C08081FF91EF919F918F912F9140
:101CE0000F900FBE0F901F9018951F920F920FB676
:101CF0000F9211242F933F934F935F936F937F9392
:101D00008F939F93AF93BF93EF93FF9388EC91E0F2
:101D10000E94390DFF91EF91BF91AF919F918F91EB
:101D20007F916F915F914F913F912F910F900FBED7
:101D30000F901F90189588EC91E00E94FE0C21E016
:101D4000892B09F420E0822F08951092CB01109284
:101D5000CA0188EE93E0A0E0B0E08093CC019093BC
:101D6000CD01A093CE01B093CF0189E291E0909391
:101D7000C9018093C80185EC90E09093D5018093D0
:101D8000D40184EC90E09093D7018093D60180EC4D
:101D900090E09093D9018093D80181EC90E09093EA
:101DA000DB018093DA0182EC90E09093DD01809377
:101DB000DC0186EC90E09093DF018093DE011092CD
:101DC000E1011092E2011092E3011092E401089502
:101DD000CF92DF92EF92FF920F931F93CF93DF93F7
:101DE0007C016A01EB0100E010E00C151D0571F0AB
:101DF0006991D701ED91FC910190F081E02DC7012F
:101E00000995892B19F00F5F1F4FEFCFC801DF91A4
:101E1000CF911F910F91FF90EF90DF90CF90089599
:101E20006115710581F0DB010D900020E9F7AD012E
:101E300041505109461B570BDC01ED91FC9102808A
:101E4000F381E02D099480E090E00895DC01ED91AC
:101E5000FC910190F081E02D099465E371E00C9410
:101E6000100F8F929F92AF92BF92CF92DF92EF921C
:101E7000FF920F931F93CF93DF93CDB7DEB7A19758
:101E80000FB6F894DEBF0FBECDBF7C01C42EE52F88
:101E9000CB01D22E19A221E02D1510F02AE0D22E6E
:101EA0008E010F5D1F4F8D2C912CA12CB12C6C2D10
:101EB0007E2FA50194010E9480108C2DD29E801946
:101EC0001124015011098A3014F4805D01C0895C2D
:101ED000F8018083211531054105510521F0C22EFD
:101EE000E32FCA01E4CFB801C7010E94100FA196E9
:101EF0000FB6F894DEBF0FBECDBFDF91CF911F911B
:101F00000F91FF90EF90DF90CF90BF90AF909F9098
:101F10008F900895CF92DF92EF92FF920F931F93CD
:101F2000CF93DF93EC016A017B012115310579F430
:101F3000E881F9810190F081E02D642FDF91CF914C
:101F40001F910F91FF90EF90DF90CF9009942A306E
:101F50003105E9F477FF1AC06DE20E94260F8C016B
:101F600044275527BA014C195D096E097F092AE0FB
:101F7000CE010E94310F800F911FDF91CF911F91F1
:101F80000F91FF90EF90DF90CF9008952AE0B70176
:101F9000A601CE01DF91CF911F910F91FF90EF909D
:101FA000DF90CF900C94310F0F931F93CF93DF935B
:101FB000EC019A01AB01662757FD6095762F0E94D0
:101FC0008A0F8C01CE010E942D0F800F911FDF918F
:101FD000CF911F910F9108950E9445100E94350CDA
:101FE0000E94B500CBE2DDE00E94DD002097E1F326
:101FF0000E942B0DF9CF1F920F920FB60F92112452
:102000002F933F938F939F93AF93BF9380916602DB
:1020100090916702A0916802B091690230916502C7
:1020200023E0230F2D3720F40196A11DB11D05C01B
:1020300026E8230F0296A11DB11D2093650280930F
:10204000660290936702A0936802B0936902809140
:102050006A0290916B02A0916C02B0916D020196A0
:10206000A11DB11D80936A0290936B02A0936C0234
:10207000B0936D02BF91AF919F918F913F912F913E
:102080000F900FBE0F901F901895789484B58260C2
:1020900084BD84B5816084BD85B5826085BD85B50C
:1020A000816085BDEEE6F0E0808181608083E1E8BB
:1020B000F0E01082808182608083808181608083F3
:1020C000E0E8F0E0808181608083E1EBF0E08081F6
:1020D00084608083E0EBF0E0808181608083EAE7C8
:1020E000F0E0808184608083808182608083808151
:1020F000816080838081806880831092C100089510
:10210000A1E21A2EAA1BBB1BFD010DC0AA1FBB1FFB
:10211000EE1FFF1FA217B307E407F50720F0A21B6D
:10212000B30BE40BF50B661F771F881F991F1A94DA
:1021300069F760957095809590959B01AC01BD0104
:10214000CF010895EE0FFF1F0590F491E02D099443
:10215000CF93DF938230910510F482E090E0E0911C
:102160007002F091710220E030E0A0E0B0E0309722
:1021700039F14081518148175907B8F0481759077C
:1021800071F482819381109729F013969C938E931A
:1021900012972CC0909371028093700227C0211572
:1021A000310531F04217530718F0A901DB0101C0D6
:1021B000EF019A01BD01DF010280F381E02DD7CF4D
:1021C00021153105F9F0281B390B2430310580F435
:1021D0008A819B816115710521F0FB0193838283C4
:1021E00004C09093710280937002FE01329644C045
:1021F000FE01E20FF31F819391932250310939833D
:1022000028833AC020916E0230916F02232B41F453
:10221000209102013091030130936F0220936E02EE
:1022200020910001309101012115310541F42DB7B4
:102230003EB74091040150910501241B350BE091FC
:102240006E02F0916F02E217F307A0F42E1B3F0B12
:102250002817390778F0AC014E5F5F4F2417350718
:1022600048F04E0F5F1F50936F0240936E028193B0
:10227000919302C0E0E0F0E0CF01DF91CF910895AB
:10228000CF93DF93009709F487C0FC013297138244
:102290001282C0917002D0917102209781F4208146
:1022A0003181280F391F80916E0290916F02821741
:1022B000930779F5F0936F02E0936E026DC0DE0133
:1022C00020E030E0AE17BF0750F412964D915C91BC
:1022D00013979D014115510509F1DA01F3CFB3833D
:1022E000A28340815181840F951F8A179B0771F447
:1022F0008D919C911197840F951F029691838083F5
:1023000012968D919C9113979383828321153105A9
:1023100029F4F0937102E09370023EC0D901139644
:10232000FC93EE9312974D915D91A40FB51FEA17A0
:10233000FB0779F480819181840F951F0296D90162
:1023400011969C938E938281938113969C938E9386
:102350001297E0E0F0E08A819B81009719F0FE017E
:10236000EC01F9CFCE01029628813981820F931FAB
:1023700020916E0230916F022817390769F4309767
:1023800029F4109271021092700202C0138212821C
:10239000D0936F02C0936E02DF91CF910895FB013D
:1023A000DC0102C001900D9241505040D8F70895D1
:1023B000DC0101C06D9341505040E0F70895F8945E
:0223C000FFCF4D
:1023C20000007202800001426C696E6B00416E6116
:1023D2006C6F67526561640049444C4500546D72EC
:1023E2002053766300000000007C0DE80EFE0C17FF
:1023F2000D090D5A0D0D0A006E616E00696E6600C0
:062402006F7666002E005B
:00000001FF
